{
  "_format": "hh-sol-artifact-1",
  "contractName": "Stakeholder",
  "sourceName": "contracts/Stakeholder.sol",
  "abi": [
    {
      "inputs": [
        {
          "internalType": "uint256",
          "name": "_registeredAt",
          "type": "uint256"
        }
      ],
      "stateMutability": "nonpayable",
      "type": "constructor"
    },
    {
      "inputs": [
        {
          "internalType": "string",
          "name": "_email",
          "type": "string"
        },
        {
          "internalType": "address",
          "name": "_metaMaskAccount",
          "type": "address"
        },
        {
          "internalType": "uint256",
          "name": "_registeredAt",
          "type": "uint256"
        }
      ],
      "name": "addStakeholder",
      "outputs": [],
      "stateMutability": "payable",
      "type": "function"
    },
    {
      "inputs": [
        {
          "internalType": "address",
          "name": "_metaMaskAccount",
          "type": "address"
        }
      ],
      "name": "getStakeholder",
      "outputs": [
        {
          "components": [
            {
              "internalType": "string",
              "name": "email",
              "type": "string"
            },
            {
              "internalType": "address",
              "name": "metamaskAccount",
              "type": "address"
            },
            {
              "internalType": "uint256",
              "name": "registeredAt",
              "type": "uint256"
            },
            {
              "internalType": "uint256",
              "name": "verifiedAt",
              "type": "uint256"
            },
            {
              "internalType": "bool",
              "name": "isAuthentic",
              "type": "bool"
            }
          ],
          "internalType": "struct Stakeholder.Stakeholders",
          "name": "",
          "type": "tuple"
        }
      ],
      "stateMutability": "view",
      "type": "function"
    },
    {
      "inputs": [],
      "name": "owner",
      "outputs": [
        {
          "internalType": "address payable",
          "name": "",
          "type": "address"
        }
      ],
      "stateMutability": "view",
      "type": "function"
    },
    {
      "inputs": [
        {
          "internalType": "address",
          "name": "",
          "type": "address"
        }
      ],
      "name": "stakeholders",
      "outputs": [
        {
          "internalType": "string",
          "name": "email",
          "type": "string"
        },
        {
          "internalType": "address",
          "name": "metamaskAccount",
          "type": "address"
        },
        {
          "internalType": "uint256",
          "name": "registeredAt",
          "type": "uint256"
        },
        {
          "internalType": "uint256",
          "name": "verifiedAt",
          "type": "uint256"
        },
        {
          "internalType": "bool",
          "name": "isAuthentic",
          "type": "bool"
        }
      ],
      "stateMutability": "view",
      "type": "function"
    },
    {
      "inputs": [
        {
          "internalType": "address",
          "name": "_metaMaskAccount",
          "type": "address"
        },
        {
          "internalType": "bool",
          "name": "_isAuthentic",
          "type": "bool"
        }
      ],
      "name": "verifyStakeholder",
      "outputs": [],
      "stateMutability": "payable",
      "type": "function"
    }
  ],
  "bytecode": "0x60806040523480156200001157600080fd5b506040516200180b3803806200180b833981810160405281019062000037919062000343565b6040518060a001604052806040518060400160405280600f81526020017f61646d696e40706861726d2e636f6d000000000000000000000000000000000081525081526020013373ffffffffffffffffffffffffffffffffffffffff168152602001828152602001428152602001600115158152506000803373ffffffffffffffffffffffffffffffffffffffff1673ffffffffffffffffffffffffffffffffffffffff1681526020019081526020016000206000820151816000019081620001019190620005e5565b5060208201518160010160006101000a81548173ffffffffffffffffffffffffffffffffffffffff021916908373ffffffffffffffffffffffffffffffffffffffff160217905550604082015181600201556060820151816003015560808201518160040160006101000a81548160ff021916908315150217905550905050620001ab6040518060600160405280602c8152602001620017df602c913933620001f360201b60201c565b33600160006101000a81548173ffffffffffffffffffffffffffffffffffffffff021916908373ffffffffffffffffffffffffffffffffffffffff1602179055505062000803565b6200029582826040516024016200020c929190620007a0565b6040516020818303038152906040527f319af333000000000000000000000000000000000000000000000000000000007bffffffffffffffffffffffffffffffffffffffffffffffffffffffff19166020820180517bffffffffffffffffffffffffffffffffffffffffffffffffffffffff83818316178352505050506200029960201b60201c565b5050565b620002bf81620002ba620002c260201b6200065817620002e360201b60201c565b60201c565b50565b60006a636f6e736f6c652e6c6f679050600080835160208501845afa505050565b620002f760201b6200067917819050919050565b62000301620007d4565b565b600080fd5b6000819050919050565b6200031d8162000308565b81146200032957600080fd5b50565b6000815190506200033d8162000312565b92915050565b6000602082840312156200035c576200035b62000303565b5b60006200036c848285016200032c565b91505092915050565b600081519050919050565b7f4e487b7100000000000000000000000000000000000000000000000000000000600052604160045260246000fd5b7f4e487b7100000000000000000000000000000000000000000000000000000000600052602260045260246000fd5b60006002820490506001821680620003f757607f821691505b6020821081036200040d576200040c620003af565b5b50919050565b60008190508160005260206000209050919050565b60006020601f8301049050919050565b600082821b905092915050565b600060088302620004777fffffffffffffffffffffffffffffffffffffffffffffffffffffffffffffffff8262000438565b62000483868362000438565b95508019841693508086168417925050509392505050565b6000819050919050565b6000620004c6620004c0620004ba8462000308565b6200049b565b62000308565b9050919050565b6000819050919050565b620004e283620004a5565b620004fa620004f182620004cd565b84845462000445565b825550505050565b600090565b6200051162000502565b6200051e818484620004d7565b505050565b5b8181101562000546576200053a60008262000507565b60018101905062000524565b5050565b601f82111562000595576200055f8162000413565b6200056a8462000428565b810160208510156200057a578190505b62000592620005898562000428565b83018262000523565b50505b505050565b600082821c905092915050565b6000620005ba600019846008026200059a565b1980831691505092915050565b6000620005d58383620005a7565b9150826002028217905092915050565b620005f08262000375565b67ffffffffffffffff8111156200060c576200060b62000380565b5b620006188254620003de565b620006258282856200054a565b600060209050601f8311600181146200065d576000841562000648578287015190505b620006548582620005c7565b865550620006c4565b601f1984166200066d8662000413565b60005b82811015620006975784890151825560018201915060208501945060208101905062000670565b86831015620006b75784890151620006b3601f891682620005a7565b8355505b6001600288020188555050505b505050505050565b600082825260208201905092915050565b60005b83811015620006fd578082015181840152602081019050620006e0565b60008484015250505050565b6000601f19601f8301169050919050565b6000620007278262000375565b620007338185620006cc565b935062000745818560208601620006dd565b620007508162000709565b840191505092915050565b600073ffffffffffffffffffffffffffffffffffffffff82169050919050565b600062000788826200075b565b9050919050565b6200079a816200077b565b82525050565b60006040820190508181036000830152620007bc81856200071a565b9050620007cd60208301846200078f565b9392505050565b7f4e487b7100000000000000000000000000000000000000000000000000000000600052605160045260246000fd5b610fcc80620008136000396000f3fe60806040526004361061004a5760003560e01c806362afde251461004f5780638da5cb5b1461008c578063a43d1567146100b7578063c07cfca9146100d3578063d2da9a6a14610114575b600080fd5b34801561005b57600080fd5b506100766004803603810190610071919061073c565b610130565b60405161008391906108b2565b60405180910390f35b34801561009857600080fd5b506100a161029f565b6040516100ae91906108f5565b60405180910390f35b6100d160048036038101906100cc919061093c565b6102c5565b005b3480156100df57600080fd5b506100fa60048036038101906100f5919061073c565b610377565b60405161010b9594939291906109f3565b60405180910390f35b61012e60048036038101906101299190610bae565b610462565b005b610138610683565b6000808373ffffffffffffffffffffffffffffffffffffffff1673ffffffffffffffffffffffffffffffffffffffff1681526020019081526020016000206040518060a001604052908160008201805461019190610c4c565b80601f01602080910402602001604051908101604052809291908181526020018280546101bd90610c4c565b801561020a5780601f106101df5761010080835404028352916020019161020a565b820191906000526020600020905b8154815290600101906020018083116101ed57829003601f168201915b505050505081526020016001820160009054906101000a900473ffffffffffffffffffffffffffffffffffffffff1673ffffffffffffffffffffffffffffffffffffffff1673ffffffffffffffffffffffffffffffffffffffff16815260200160028201548152602001600382015481526020016004820160009054906101000a900460ff1615151515815250509050919050565b600160009054906101000a900473ffffffffffffffffffffffffffffffffffffffff1681565b60003490506000811061037257426000808573ffffffffffffffffffffffffffffffffffffffff1673ffffffffffffffffffffffffffffffffffffffff16815260200190815260200160002060030181905550816000808573ffffffffffffffffffffffffffffffffffffffff1673ffffffffffffffffffffffffffffffffffffffff16815260200190815260200160002060040160006101000a81548160ff0219169083151502179055505b505050565b600060205280600052604060002060009150905080600001805461039a90610c4c565b80601f01602080910402602001604051908101604052809291908181526020018280546103c690610c4c565b80156104135780601f106103e857610100808354040283529160200191610413565b820191906000526020600020905b8154815290600101906020018083116103f657829003601f168201915b5050505050908060010160009054906101000a900473ffffffffffffffffffffffffffffffffffffffff16908060020154908060030154908060040160009054906101000a900460ff16905085565b8173ffffffffffffffffffffffffffffffffffffffff166000808473ffffffffffffffffffffffffffffffffffffffff1673ffffffffffffffffffffffffffffffffffffffff16815260200190815260200160002060010160009054906101000a900473ffffffffffffffffffffffffffffffffffffffff1673ffffffffffffffffffffffffffffffffffffffff1603610531576040517f08c379a000000000000000000000000000000000000000000000000000000000815260040161052890610cc9565b60405180910390fd5b600034905060008110610652576040518060a001604052808581526020018473ffffffffffffffffffffffffffffffffffffffff16815260200183815260200160008152602001600015158152506000808573ffffffffffffffffffffffffffffffffffffffff1673ffffffffffffffffffffffffffffffffffffffff16815260200190815260200160002060008201518160000190816105d29190610e95565b5060208201518160010160006101000a81548173ffffffffffffffffffffffffffffffffffffffff021916908373ffffffffffffffffffffffffffffffffffffffff160217905550604082015181600201556060820151816003015560808201518160040160006101000a81548160ff0219169083151502179055509050505b50505050565b60006a636f6e736f6c652e6c6f679050600080835160208501845afa505050565b610681610f67565b565b6040518060a0016040528060608152602001600073ffffffffffffffffffffffffffffffffffffffff16815260200160008152602001600081526020016000151581525090565b6000604051905090565b600080fd5b600080fd5b600073ffffffffffffffffffffffffffffffffffffffff82169050919050565b6000610709826106de565b9050919050565b610719816106fe565b811461072457600080fd5b50565b60008135905061073681610710565b92915050565b600060208284031215610752576107516106d4565b5b600061076084828501610727565b91505092915050565b600081519050919050565b600082825260208201905092915050565b60005b838110156107a3578082015181840152602081019050610788565b60008484015250505050565b6000601f19601f8301169050919050565b60006107cb82610769565b6107d58185610774565b93506107e5818560208601610785565b6107ee816107af565b840191505092915050565b610802816106fe565b82525050565b6000819050919050565b61081b81610808565b82525050565b60008115159050919050565b61083681610821565b82525050565b600060a083016000830151848203600086015261085982826107c0565b915050602083015161086e60208601826107f9565b5060408301516108816040860182610812565b5060608301516108946060860182610812565b5060808301516108a7608086018261082d565b508091505092915050565b600060208201905081810360008301526108cc818461083c565b905092915050565b60006108df826106de565b9050919050565b6108ef816108d4565b82525050565b600060208201905061090a60008301846108e6565b92915050565b61091981610821565b811461092457600080fd5b50565b60008135905061093681610910565b92915050565b60008060408385031215610953576109526106d4565b5b600061096185828601610727565b925050602061097285828601610927565b9150509250929050565b600082825260208201905092915050565b600061099882610769565b6109a2818561097c565b93506109b2818560208601610785565b6109bb816107af565b840191505092915050565b6109cf816106fe565b82525050565b6109de81610808565b82525050565b6109ed81610821565b82525050565b600060a0820190508181036000830152610a0d818861098d565b9050610a1c60208301876109c6565b610a2960408301866109d5565b610a3660608301856109d5565b610a4360808301846109e4565b9695505050505050565b600080fd5b600080fd5b7f4e487b7100000000000000000000000000000000000000000000000000000000600052604160045260246000fd5b610a8f826107af565b810181811067ffffffffffffffff82111715610aae57610aad610a57565b5b80604052505050565b6000610ac16106ca565b9050610acd8282610a86565b919050565b600067ffffffffffffffff821115610aed57610aec610a57565b5b610af6826107af565b9050602081019050919050565b82818337600083830152505050565b6000610b25610b2084610ad2565b610ab7565b905082815260208101848484011115610b4157610b40610a52565b5b610b4c848285610b03565b509392505050565b600082601f830112610b6957610b68610a4d565b5b8135610b79848260208601610b12565b91505092915050565b610b8b81610808565b8114610b9657600080fd5b50565b600081359050610ba881610b82565b92915050565b600080600060608486031215610bc757610bc66106d4565b5b600084013567ffffffffffffffff811115610be557610be46106d9565b5b610bf186828701610b54565b9350506020610c0286828701610727565b9250506040610c1386828701610b99565b9150509250925092565b7f4e487b7100000000000000000000000000000000000000000000000000000000600052602260045260246000fd5b60006002820490506001821680610c6457607f821691505b602082108103610c7757610c76610c1d565b5b50919050565b7f5374616b65686f6c64657220616c726561647920657869737473000000000000600082015250565b6000610cb3601a8361097c565b9150610cbe82610c7d565b602082019050919050565b60006020820190508181036000830152610ce281610ca6565b9050919050565b60008190508160005260206000209050919050565b60006020601f8301049050919050565b600082821b905092915050565b600060088302610d4b7fffffffffffffffffffffffffffffffffffffffffffffffffffffffffffffffff82610d0e565b610d558683610d0e565b95508019841693508086168417925050509392505050565b6000819050919050565b6000610d92610d8d610d8884610808565b610d6d565b610808565b9050919050565b6000819050919050565b610dac83610d77565b610dc0610db882610d99565b848454610d1b565b825550505050565b600090565b610dd5610dc8565b610de0818484610da3565b505050565b5b81811015610e0457610df9600082610dcd565b600181019050610de6565b5050565b601f821115610e4957610e1a81610ce9565b610e2384610cfe565b81016020851015610e32578190505b610e46610e3e85610cfe565b830182610de5565b50505b505050565b600082821c905092915050565b6000610e6c60001984600802610e4e565b1980831691505092915050565b6000610e858383610e5b565b9150826002028217905092915050565b610e9e82610769565b67ffffffffffffffff811115610eb757610eb6610a57565b5b610ec18254610c4c565b610ecc828285610e08565b600060209050601f831160018114610eff5760008415610eed578287015190505b610ef78582610e79565b865550610f5f565b601f198416610f0d86610ce9565b60005b82811015610f3557848901518255600182019150602085019450602081019050610f10565b86831015610f525784890151610f4e601f891682610e5b565b8355505b6001600288020188555050505b505050505050565b7f4e487b7100000000000000000000000000000000000000000000000000000000600052605160045260246000fdfea2646970667358221220f30d42bb2d9bfa3da81cb3f681d26417c53230df6f5daf5b669c9b27ae2a4c8664736f6c634300081300334465706c6f796564205374616b65686f6c64657220636f6e74726163742c2077697468206164647265737320",
  "linkReferences": {},
  "deployedLinkReferences": {}
}