{
  "_format": "hh-sol-artifact-1",
  "contractName": "Stakeholder",
  "sourceName": "contracts/Stakeholder.sol",
  "abi": [
    {
      "inputs": [
        {
          "internalType": "uint256",
          "name": "_registeredAt",
          "type": "uint256"
        }
      ],
      "stateMutability": "nonpayable",
      "type": "constructor"
    },
    {
      "inputs": [
        {
          "internalType": "string",
          "name": "_email",
          "type": "string"
        },
        {
          "internalType": "address",
          "name": "_metaMaskAccount",
          "type": "address"
        },
        {
          "internalType": "uint256",
          "name": "_registeredAt",
          "type": "uint256"
        }
      ],
      "name": "addStakeholder",
      "outputs": [],
      "stateMutability": "nonpayable",
      "type": "function"
    },
    {
      "inputs": [
        {
          "internalType": "address",
          "name": "_metaMaskAccount",
          "type": "address"
        }
      ],
      "name": "getStakeholder",
      "outputs": [
        {
          "components": [
            {
              "internalType": "string",
              "name": "email",
              "type": "string"
            },
            {
              "internalType": "address",
              "name": "metamaskAccount",
              "type": "address"
            },
            {
              "internalType": "uint256",
              "name": "registeredAt",
              "type": "uint256"
            },
            {
              "internalType": "uint256",
              "name": "verifiedAt",
              "type": "uint256"
            },
            {
              "internalType": "bool",
              "name": "isAuthentic",
              "type": "bool"
            }
          ],
          "internalType": "struct Stakeholder.Stakeholders",
          "name": "",
          "type": "tuple"
        }
      ],
      "stateMutability": "view",
      "type": "function"
    },
    {
      "inputs": [],
      "name": "owner",
      "outputs": [
        {
          "internalType": "address payable",
          "name": "",
          "type": "address"
        }
      ],
      "stateMutability": "view",
      "type": "function"
    },
    {
      "inputs": [
        {
          "internalType": "address",
          "name": "",
          "type": "address"
        }
      ],
      "name": "stakeholders",
      "outputs": [
        {
          "internalType": "string",
          "name": "email",
          "type": "string"
        },
        {
          "internalType": "address",
          "name": "metamaskAccount",
          "type": "address"
        },
        {
          "internalType": "uint256",
          "name": "registeredAt",
          "type": "uint256"
        },
        {
          "internalType": "uint256",
          "name": "verifiedAt",
          "type": "uint256"
        },
        {
          "internalType": "bool",
          "name": "isAuthentic",
          "type": "bool"
        }
      ],
      "stateMutability": "view",
      "type": "function"
    },
    {
      "inputs": [
        {
          "internalType": "address",
          "name": "_metaMaskAccount",
          "type": "address"
        },
        {
          "internalType": "bool",
          "name": "_isAuthentic",
          "type": "bool"
        }
      ],
      "name": "verifyStakeholder",
      "outputs": [],
      "stateMutability": "nonpayable",
      "type": "function"
    }
  ],
  "bytecode": "0x60806040523480156200001157600080fd5b506040516200149a3803806200149a8339818101604052810190620000379190620001c7565b6040518060a001604052806040518060400160405280600f81526020017f61646d696e40706861726d2e636f6d000000000000000000000000000000000081525081526020013373ffffffffffffffffffffffffffffffffffffffff168152602001828152602001428152602001600115158152506000803373ffffffffffffffffffffffffffffffffffffffff1673ffffffffffffffffffffffffffffffffffffffff168152602001908152602001600020600082015181600001908162000101919062000469565b5060208201518160010160006101000a81548173ffffffffffffffffffffffffffffffffffffffff021916908373ffffffffffffffffffffffffffffffffffffffff160217905550604082015181600201556060820151816003015560808201518160040160006101000a81548160ff0219169083151502179055509050505062000550565b600080fd5b6000819050919050565b620001a1816200018c565b8114620001ad57600080fd5b50565b600081519050620001c18162000196565b92915050565b600060208284031215620001e057620001df62000187565b5b6000620001f084828501620001b0565b91505092915050565b600081519050919050565b7f4e487b7100000000000000000000000000000000000000000000000000000000600052604160045260246000fd5b7f4e487b7100000000000000000000000000000000000000000000000000000000600052602260045260246000fd5b600060028204905060018216806200027b57607f821691505b60208210810362000291576200029062000233565b5b50919050565b60008190508160005260206000209050919050565b60006020601f8301049050919050565b600082821b905092915050565b600060088302620002fb7fffffffffffffffffffffffffffffffffffffffffffffffffffffffffffffffff82620002bc565b620003078683620002bc565b95508019841693508086168417925050509392505050565b6000819050919050565b60006200034a620003446200033e846200018c565b6200031f565b6200018c565b9050919050565b6000819050919050565b620003668362000329565b6200037e620003758262000351565b848454620002c9565b825550505050565b600090565b6200039562000386565b620003a28184846200035b565b505050565b5b81811015620003ca57620003be6000826200038b565b600181019050620003a8565b5050565b601f8211156200041957620003e38162000297565b620003ee84620002ac565b81016020851015620003fe578190505b620004166200040d85620002ac565b830182620003a7565b50505b505050565b600082821c905092915050565b60006200043e600019846008026200041e565b1980831691505092915050565b60006200045983836200042b565b9150826002028217905092915050565b6200047482620001f9565b67ffffffffffffffff81111562000490576200048f62000204565b5b6200049c825462000262565b620004a9828285620003ce565b600060209050601f831160018114620004e15760008415620004cc578287015190505b620004d885826200044b565b86555062000548565b601f198416620004f18662000297565b60005b828110156200051b57848901518255600182019150602085019450602081019050620004f4565b868310156200053b578489015162000537601f8916826200042b565b8355505b6001600288020188555050505b505050505050565b610f3a80620005606000396000f3fe608060405234801561001057600080fd5b50600436106100575760003560e01c806362afde251461005c5780638da5cb5b1461008c578063a43d1567146100aa578063c07cfca9146100c6578063d2da9a6a146100fa575b600080fd5b610076600480360381019061007191906106d9565b610116565b604051610083919061084f565b60405180910390f35b610094610285565b6040516100a19190610892565b60405180910390f35b6100c460048036038101906100bf91906108d9565b6102ab565b005b6100e060048036038101906100db91906106d9565b61034e565b6040516100f1959493929190610990565b60405180910390f35b610114600480360381019061010f9190610b4b565b610439565b005b61011e610620565b6000808373ffffffffffffffffffffffffffffffffffffffff1673ffffffffffffffffffffffffffffffffffffffff1681526020019081526020016000206040518060a001604052908160008201805461017790610be9565b80601f01602080910402602001604051908101604052809291908181526020018280546101a390610be9565b80156101f05780601f106101c5576101008083540402835291602001916101f0565b820191906000526020600020905b8154815290600101906020018083116101d357829003601f168201915b505050505081526020016001820160009054906101000a900473ffffffffffffffffffffffffffffffffffffffff1673ffffffffffffffffffffffffffffffffffffffff1673ffffffffffffffffffffffffffffffffffffffff16815260200160028201548152602001600382015481526020016004820160009054906101000a900460ff1615151515815250509050919050565b600160009054906101000a900473ffffffffffffffffffffffffffffffffffffffff1681565b426000808473ffffffffffffffffffffffffffffffffffffffff1673ffffffffffffffffffffffffffffffffffffffff16815260200190815260200160002060030181905550806000808473ffffffffffffffffffffffffffffffffffffffff1673ffffffffffffffffffffffffffffffffffffffff16815260200190815260200160002060040160006101000a81548160ff0219169083151502179055505050565b600060205280600052604060002060009150905080600001805461037190610be9565b80601f016020809104026020016040519081016040528092919081815260200182805461039d90610be9565b80156103ea5780601f106103bf576101008083540402835291602001916103ea565b820191906000526020600020905b8154815290600101906020018083116103cd57829003601f168201915b5050505050908060010160009054906101000a900473ffffffffffffffffffffffffffffffffffffffff16908060020154908060030154908060040160009054906101000a900460ff16905085565b8173ffffffffffffffffffffffffffffffffffffffff166000808473ffffffffffffffffffffffffffffffffffffffff1673ffffffffffffffffffffffffffffffffffffffff16815260200190815260200160002060010160009054906101000a900473ffffffffffffffffffffffffffffffffffffffff1673ffffffffffffffffffffffffffffffffffffffff1603610508576040517f08c379a00000000000000000000000000000000000000000000000000000000081526004016104ff90610c66565b60405180910390fd5b6040518060a001604052808481526020018373ffffffffffffffffffffffffffffffffffffffff16815260200182815260200160008152602001600015158152506000808473ffffffffffffffffffffffffffffffffffffffff1673ffffffffffffffffffffffffffffffffffffffff168152602001908152602001600020600082015181600001908161059c9190610e32565b5060208201518160010160006101000a81548173ffffffffffffffffffffffffffffffffffffffff021916908373ffffffffffffffffffffffffffffffffffffffff160217905550604082015181600201556060820151816003015560808201518160040160006101000a81548160ff021916908315150217905550905050505050565b6040518060a0016040528060608152602001600073ffffffffffffffffffffffffffffffffffffffff16815260200160008152602001600081526020016000151581525090565b6000604051905090565b600080fd5b600080fd5b600073ffffffffffffffffffffffffffffffffffffffff82169050919050565b60006106a68261067b565b9050919050565b6106b68161069b565b81146106c157600080fd5b50565b6000813590506106d3816106ad565b92915050565b6000602082840312156106ef576106ee610671565b5b60006106fd848285016106c4565b91505092915050565b600081519050919050565b600082825260208201905092915050565b60005b83811015610740578082015181840152602081019050610725565b60008484015250505050565b6000601f19601f8301169050919050565b600061076882610706565b6107728185610711565b9350610782818560208601610722565b61078b8161074c565b840191505092915050565b61079f8161069b565b82525050565b6000819050919050565b6107b8816107a5565b82525050565b60008115159050919050565b6107d3816107be565b82525050565b600060a08301600083015184820360008601526107f6828261075d565b915050602083015161080b6020860182610796565b50604083015161081e60408601826107af565b50606083015161083160608601826107af565b50608083015161084460808601826107ca565b508091505092915050565b6000602082019050818103600083015261086981846107d9565b905092915050565b600061087c8261067b565b9050919050565b61088c81610871565b82525050565b60006020820190506108a76000830184610883565b92915050565b6108b6816107be565b81146108c157600080fd5b50565b6000813590506108d3816108ad565b92915050565b600080604083850312156108f0576108ef610671565b5b60006108fe858286016106c4565b925050602061090f858286016108c4565b9150509250929050565b600082825260208201905092915050565b600061093582610706565b61093f8185610919565b935061094f818560208601610722565b6109588161074c565b840191505092915050565b61096c8161069b565b82525050565b61097b816107a5565b82525050565b61098a816107be565b82525050565b600060a08201905081810360008301526109aa818861092a565b90506109b96020830187610963565b6109c66040830186610972565b6109d36060830185610972565b6109e06080830184610981565b9695505050505050565b600080fd5b600080fd5b7f4e487b7100000000000000000000000000000000000000000000000000000000600052604160045260246000fd5b610a2c8261074c565b810181811067ffffffffffffffff82111715610a4b57610a4a6109f4565b5b80604052505050565b6000610a5e610667565b9050610a6a8282610a23565b919050565b600067ffffffffffffffff821115610a8a57610a896109f4565b5b610a938261074c565b9050602081019050919050565b82818337600083830152505050565b6000610ac2610abd84610a6f565b610a54565b905082815260208101848484011115610ade57610add6109ef565b5b610ae9848285610aa0565b509392505050565b600082601f830112610b0657610b056109ea565b5b8135610b16848260208601610aaf565b91505092915050565b610b28816107a5565b8114610b3357600080fd5b50565b600081359050610b4581610b1f565b92915050565b600080600060608486031215610b6457610b63610671565b5b600084013567ffffffffffffffff811115610b8257610b81610676565b5b610b8e86828701610af1565b9350506020610b9f868287016106c4565b9250506040610bb086828701610b36565b9150509250925092565b7f4e487b7100000000000000000000000000000000000000000000000000000000600052602260045260246000fd5b60006002820490506001821680610c0157607f821691505b602082108103610c1457610c13610bba565b5b50919050565b7f5374616b65686f6c64657220616c726561647920657869737473000000000000600082015250565b6000610c50601a83610919565b9150610c5b82610c1a565b602082019050919050565b60006020820190508181036000830152610c7f81610c43565b9050919050565b60008190508160005260206000209050919050565b60006020601f8301049050919050565b600082821b905092915050565b600060088302610ce87fffffffffffffffffffffffffffffffffffffffffffffffffffffffffffffffff82610cab565b610cf28683610cab565b95508019841693508086168417925050509392505050565b6000819050919050565b6000610d2f610d2a610d25846107a5565b610d0a565b6107a5565b9050919050565b6000819050919050565b610d4983610d14565b610d5d610d5582610d36565b848454610cb8565b825550505050565b600090565b610d72610d65565b610d7d818484610d40565b505050565b5b81811015610da157610d96600082610d6a565b600181019050610d83565b5050565b601f821115610de657610db781610c86565b610dc084610c9b565b81016020851015610dcf578190505b610de3610ddb85610c9b565b830182610d82565b50505b505050565b600082821c905092915050565b6000610e0960001984600802610deb565b1980831691505092915050565b6000610e228383610df8565b9150826002028217905092915050565b610e3b82610706565b67ffffffffffffffff811115610e5457610e536109f4565b5b610e5e8254610be9565b610e69828285610da5565b600060209050601f831160018114610e9c5760008415610e8a578287015190505b610e948582610e16565b865550610efc565b601f198416610eaa86610c86565b60005b82811015610ed257848901518255600182019150602085019450602081019050610ead565b86831015610eef5784890151610eeb601f891682610df8565b8355505b6001600288020188555050505b50505050505056fea264697066735822122016c5b1613f9627cb1b8b25b346747a25cbc2be1cd8d8cb42aa0ef1ae139ab84264736f6c63430008130033",
  "linkReferences": {},
  "deployedLinkReferences": {}
}